{
  "_format": "hh-sol-artifact-1",
  "contractName": "B33fCoin",
  "sourceName": "contracts/B33fCoin.sol",
  "abi": [
    {
      "inputs": [
        {
          "internalType": "address",
          "name": "initialOwner",
          "type": "address"
        }
      ],
      "stateMutability": "nonpayable",
      "type": "constructor"
    },
    {
      "inputs": [
        {
          "internalType": "address",
          "name": "spender",
          "type": "address"
        },
        {
          "internalType": "uint256",
          "name": "allowance",
          "type": "uint256"
        },
        {
          "internalType": "uint256",
          "name": "needed",
          "type": "uint256"
        }
      ],
      "name": "ERC20InsufficientAllowance",
      "type": "error"
    },
    {
      "inputs": [
        {
          "internalType": "address",
          "name": "sender",
          "type": "address"
        },
        {
          "internalType": "uint256",
          "name": "balance",
          "type": "uint256"
        },
        {
          "internalType": "uint256",
          "name": "needed",
          "type": "uint256"
        }
      ],
      "name": "ERC20InsufficientBalance",
      "type": "error"
    },
    {
      "inputs": [
        {
          "internalType": "address",
          "name": "approver",
          "type": "address"
        }
      ],
      "name": "ERC20InvalidApprover",
      "type": "error"
    },
    {
      "inputs": [
        {
          "internalType": "address",
          "name": "receiver",
          "type": "address"
        }
      ],
      "name": "ERC20InvalidReceiver",
      "type": "error"
    },
    {
      "inputs": [
        {
          "internalType": "address",
          "name": "sender",
          "type": "address"
        }
      ],
      "name": "ERC20InvalidSender",
      "type": "error"
    },
    {
      "inputs": [
        {
          "internalType": "address",
          "name": "spender",
          "type": "address"
        }
      ],
      "name": "ERC20InvalidSpender",
      "type": "error"
    },
    {
      "inputs": [
        {
          "internalType": "address",
          "name": "owner",
          "type": "address"
        }
      ],
      "name": "OwnableInvalidOwner",
      "type": "error"
    },
    {
      "inputs": [
        {
          "internalType": "address",
          "name": "account",
          "type": "address"
        }
      ],
      "name": "OwnableUnauthorizedAccount",
      "type": "error"
    },
    {
      "anonymous": false,
      "inputs": [
        {
          "indexed": true,
          "internalType": "address",
          "name": "owner",
          "type": "address"
        },
        {
          "indexed": true,
          "internalType": "address",
          "name": "spender",
          "type": "address"
        },
        {
          "indexed": false,
          "internalType": "uint256",
          "name": "value",
          "type": "uint256"
        }
      ],
      "name": "Approval",
      "type": "event"
    },
    {
      "anonymous": false,
      "inputs": [
        {
          "indexed": true,
          "internalType": "address",
          "name": "oldContract",
          "type": "address"
        },
        {
          "indexed": true,
          "internalType": "address",
          "name": "newContract",
          "type": "address"
        }
      ],
      "name": "BattleContractUpdated",
      "type": "event"
    },
    {
      "anonymous": false,
      "inputs": [
        {
          "indexed": true,
          "internalType": "address",
          "name": "previousOwner",
          "type": "address"
        },
        {
          "indexed": true,
          "internalType": "address",
          "name": "newOwner",
          "type": "address"
        }
      ],
      "name": "OwnershipTransferred",
      "type": "event"
    },
    {
      "anonymous": false,
      "inputs": [
        {
          "indexed": true,
          "internalType": "address",
          "name": "from",
          "type": "address"
        },
        {
          "indexed": true,
          "internalType": "address",
          "name": "to",
          "type": "address"
        },
        {
          "indexed": false,
          "internalType": "uint256",
          "name": "value",
          "type": "uint256"
        }
      ],
      "name": "Transfer",
      "type": "event"
    },
    {
      "inputs": [
        {
          "internalType": "address",
          "name": "owner",
          "type": "address"
        },
        {
          "internalType": "address",
          "name": "spender",
          "type": "address"
        }
      ],
      "name": "allowance",
      "outputs": [
        {
          "internalType": "uint256",
          "name": "",
          "type": "uint256"
        }
      ],
      "stateMutability": "view",
      "type": "function"
    },
    {
      "inputs": [
        {
          "internalType": "address",
          "name": "spender",
          "type": "address"
        },
        {
          "internalType": "uint256",
          "name": "value",
          "type": "uint256"
        }
      ],
      "name": "approve",
      "outputs": [
        {
          "internalType": "bool",
          "name": "",
          "type": "bool"
        }
      ],
      "stateMutability": "nonpayable",
      "type": "function"
    },
    {
      "inputs": [
        {
          "internalType": "address",
          "name": "account",
          "type": "address"
        }
      ],
      "name": "balanceOf",
      "outputs": [
        {
          "internalType": "uint256",
          "name": "",
          "type": "uint256"
        }
      ],
      "stateMutability": "view",
      "type": "function"
    },
    {
      "inputs": [
        {
          "internalType": "address[]",
          "name": "recipients",
          "type": "address[]"
        },
        {
          "internalType": "uint256[]",
          "name": "amounts",
          "type": "uint256[]"
        }
      ],
      "name": "batchMint",
      "outputs": [],
      "stateMutability": "nonpayable",
      "type": "function"
    },
    {
      "inputs": [],
      "name": "battleContract",
      "outputs": [
        {
          "internalType": "address",
          "name": "",
          "type": "address"
        }
      ],
      "stateMutability": "view",
      "type": "function"
    },
    {
      "inputs": [
        {
          "internalType": "uint256",
          "name": "value",
          "type": "uint256"
        }
      ],
      "name": "burn",
      "outputs": [],
      "stateMutability": "nonpayable",
      "type": "function"
    },
    {
      "inputs": [
        {
          "internalType": "address",
          "name": "account",
          "type": "address"
        },
        {
          "internalType": "uint256",
          "name": "value",
          "type": "uint256"
        }
      ],
      "name": "burnFrom",
      "outputs": [],
      "stateMutability": "nonpayable",
      "type": "function"
    },
    {
      "inputs": [],
      "name": "decimals",
      "outputs": [
        {
          "internalType": "uint8",
          "name": "",
          "type": "uint8"
        }
      ],
      "stateMutability": "view",
      "type": "function"
    },
    {
      "inputs": [
        {
          "internalType": "address",
          "name": "to",
          "type": "address"
        },
        {
          "internalType": "uint256",
          "name": "amount",
          "type": "uint256"
        }
      ],
      "name": "mint",
      "outputs": [],
      "stateMutability": "nonpayable",
      "type": "function"
    },
    {
      "inputs": [],
      "name": "name",
      "outputs": [
        {
          "internalType": "string",
          "name": "",
          "type": "string"
        }
      ],
      "stateMutability": "view",
      "type": "function"
    },
    {
      "inputs": [],
      "name": "owner",
      "outputs": [
        {
          "internalType": "address",
          "name": "",
          "type": "address"
        }
      ],
      "stateMutability": "view",
      "type": "function"
    },
    {
      "inputs": [],
      "name": "renounceOwnership",
      "outputs": [],
      "stateMutability": "nonpayable",
      "type": "function"
    },
    {
      "inputs": [
        {
          "internalType": "address",
          "name": "_battleContract",
          "type": "address"
        }
      ],
      "name": "setBattleContract",
      "outputs": [],
      "stateMutability": "nonpayable",
      "type": "function"
    },
    {
      "inputs": [],
      "name": "symbol",
      "outputs": [
        {
          "internalType": "string",
          "name": "",
          "type": "string"
        }
      ],
      "stateMutability": "view",
      "type": "function"
    },
    {
      "inputs": [],
      "name": "totalSupply",
      "outputs": [
        {
          "internalType": "uint256",
          "name": "",
          "type": "uint256"
        }
      ],
      "stateMutability": "view",
      "type": "function"
    },
    {
      "inputs": [
        {
          "internalType": "address",
          "name": "to",
          "type": "address"
        },
        {
          "internalType": "uint256",
          "name": "value",
          "type": "uint256"
        }
      ],
      "name": "transfer",
      "outputs": [
        {
          "internalType": "bool",
          "name": "",
          "type": "bool"
        }
      ],
      "stateMutability": "nonpayable",
      "type": "function"
    },
    {
      "inputs": [
        {
          "internalType": "address",
          "name": "from",
          "type": "address"
        },
        {
          "internalType": "address",
          "name": "to",
          "type": "address"
        },
        {
          "internalType": "uint256",
          "name": "value",
          "type": "uint256"
        }
      ],
      "name": "transferFrom",
      "outputs": [
        {
          "internalType": "bool",
          "name": "",
          "type": "bool"
        }
      ],
      "stateMutability": "nonpayable",
      "type": "function"
    },
    {
      "inputs": [
        {
          "internalType": "address",
          "name": "newOwner",
          "type": "address"
        }
      ],
      "name": "transferOwnership",
      "outputs": [],
      "stateMutability": "nonpayable",
      "type": "function"
    }
  ],
  "bytecode": "0x60806040523480156200001157600080fd5b50604051620010853803806200108583398101604081905262000034916200012b565b8060405180604001604052806009815260200168211999b31021b7b4b760b91b81525060405180604001604052806004815260200163211999a360e11b815250816003908162000085919062000202565b50600462000094828262000202565b5050506001600160a01b038116620000c657604051631e4fbdf760e01b81526000600482015260240160405180910390fd5b620000d181620000d9565b5050620002ce565b600580546001600160a01b038381166001600160a01b0319831681179093556040519116919082907f8be0079c531659141344cd1fd0a4f28419497f9722a3daafe3b4186f6b6457e090600090a35050565b6000602082840312156200013e57600080fd5b81516001600160a01b03811681146200015657600080fd5b9392505050565b634e487b7160e01b600052604160045260246000fd5b600181811c908216806200018857607f821691505b602082108103620001a957634e487b7160e01b600052602260045260246000fd5b50919050565b601f821115620001fd57600081815260208120601f850160051c81016020861015620001d85750805b601f850160051c820191505b81811015620001f957828155600101620001e4565b5050505b505050565b81516001600160401b038111156200021e576200021e6200015d565b62000236816200022f845462000173565b84620001af565b602080601f8311600181146200026e5760008415620002555750858301515b600019600386901b1c1916600185901b178555620001f9565b600085815260208120601f198616915b828110156200029f578886015182559484019460019091019084016200027e565b5085821015620002be5787850151600019600388901b60f8161c191681555b5050505050600190811b01905550565b610da780620002de6000396000f3fe608060405234801561001057600080fd5b50600436106101165760003560e01c806368573107116100a25780638da5cb5b116100715780638da5cb5b1461024d57806395d89b411461025e578063a9059cbb14610266578063dd62ed3e14610279578063f2fde38b146102b257600080fd5b806368573107146101f657806370a0823114610209578063715018a61461023257806379cc67901461023a57600080fd5b806323b872dd116100e957806323b872dd14610183578063313ce5671461019657806340c10f19146101a5578063423b1ca3146101b857806342966c68146101e357600080fd5b806306fdde031461011b578063095ea7b3146101395780630db6dff71461015c57806318160ddd14610171575b600080fd5b6101236102c5565b6040516101309190610a5d565b60405180910390f35b61014c610147366004610ac7565b610357565b6040519015158152602001610130565b61016f61016a366004610af1565b610371565b005b6002545b604051908152602001610130565b61014c610191366004610b13565b61043f565b60405160128152602001610130565b61016f6101b3366004610ac7565b610463565b6006546101cb906001600160a01b031681565b6040516001600160a01b039091168152602001610130565b61016f6101f1366004610b4f565b6104c1565b61016f610204366004610bb4565b6104ce565b610175610217366004610af1565b6001600160a01b031660009081526020819052604090205490565b61016f610602565b61016f610248366004610ac7565b610616565b6005546001600160a01b03166101cb565b61012361062b565b61014c610274366004610ac7565b61063a565b610175610287366004610c20565b6001600160a01b03918216600090815260016020908152604080832093909416825291909152205490565b61016f6102c0366004610af1565b610648565b6060600380546102d490610c53565b80601f016020809104026020016040519081016040528092919081815260200182805461030090610c53565b801561034d5780601f106103225761010080835404028352916020019161034d565b820191906000526020600020905b81548152906001019060200180831161033057829003601f168201915b5050505050905090565b600033610365818585610683565b60019150505b92915050565b610379610695565b6001600160a01b0381166103ed5760405162461bcd60e51b815260206004820152603060248201527f42333366436f696e3a20626174746c6520636f6e74726163742063616e6e6f7460448201526f206265207a65726f206164647265737360801b60648201526084015b60405180910390fd5b600680546001600160a01b038381166001600160a01b0319831681179093556040519116919082907f26d82a5c1afe7c07a59493d4e022b487539270a1fe93ac838d59afe92d0fb2c290600090a35050565b60003361044d8582856106c2565b610458858585610741565b506001949350505050565b6006546001600160a01b0316331461048d5760405162461bcd60e51b81526004016103e490610c8d565b6001600160a01b0382166104b35760405162461bcd60e51b81526004016103e490610cd4565b6104bd82826107a0565b5050565b6104cb33826107d6565b50565b6006546001600160a01b031633146104f85760405162461bcd60e51b81526004016103e490610c8d565b8281146105475760405162461bcd60e51b815260206004820181905260248201527f42333366436f696e3a20617272617973206c656e677468206d69736d6174636860448201526064016103e4565b60005b838110156105fb57600085858381811061056657610566610d19565b905060200201602081019061057b9190610af1565b6001600160a01b0316036105a15760405162461bcd60e51b81526004016103e490610cd4565b6105e98585838181106105b6576105b6610d19565b90506020020160208101906105cb9190610af1565b8484848181106105dd576105dd610d19565b905060200201356107a0565b806105f381610d45565b91505061054a565b5050505050565b61060a610695565b610614600061080c565b565b6106218233836106c2565b6104bd82826107d6565b6060600480546102d490610c53565b600033610365818585610741565b610650610695565b6001600160a01b03811661067a57604051631e4fbdf760e01b8152600060048201526024016103e4565b6104cb8161080c565b610690838383600161085e565b505050565b6005546001600160a01b031633146106145760405163118cdaa760e01b81523360048201526024016103e4565b6001600160a01b0383811660009081526001602090815260408083209386168352929052205460001981101561073b578181101561072c57604051637dc7a0d960e11b81526001600160a01b038416600482015260248101829052604481018390526064016103e4565b61073b8484848403600061085e565b50505050565b6001600160a01b03831661076b57604051634b637e8f60e11b8152600060048201526024016103e4565b6001600160a01b0382166107955760405163ec442f0560e01b8152600060048201526024016103e4565b610690838383610933565b6001600160a01b0382166107ca5760405163ec442f0560e01b8152600060048201526024016103e4565b6104bd60008383610933565b6001600160a01b03821661080057604051634b637e8f60e11b8152600060048201526024016103e4565b6104bd82600083610933565b600580546001600160a01b038381166001600160a01b0319831681179093556040519116919082907f8be0079c531659141344cd1fd0a4f28419497f9722a3daafe3b4186f6b6457e090600090a35050565b6001600160a01b0384166108885760405163e602df0560e01b8152600060048201526024016103e4565b6001600160a01b0383166108b257604051634a1406b160e11b8152600060048201526024016103e4565b6001600160a01b038085166000908152600160209081526040808320938716835292905220829055801561073b57826001600160a01b0316846001600160a01b03167f8c5be1e5ebec7d5bd14f71427d1e84f3dd0314c0f7b2291e5b200ac8c7c3b9258460405161092591815260200190565b60405180910390a350505050565b6001600160a01b03831661095e5780600260008282546109539190610d5e565b909155506109d09050565b6001600160a01b038316600090815260208190526040902054818110156109b15760405163391434e360e21b81526001600160a01b038516600482015260248101829052604481018390526064016103e4565b6001600160a01b03841660009081526020819052604090209082900390555b6001600160a01b0382166109ec57600280548290039055610a0b565b6001600160a01b03821660009081526020819052604090208054820190555b816001600160a01b0316836001600160a01b03167fddf252ad1be2c89b69c2b068fc378daa952ba7f163c4a11628f55a4df523b3ef83604051610a5091815260200190565b60405180910390a3505050565b600060208083528351808285015260005b81811015610a8a57858101830151858201604001528201610a6e565b506000604082860101526040601f19601f8301168501019250505092915050565b80356001600160a01b0381168114610ac257600080fd5b919050565b60008060408385031215610ada57600080fd5b610ae383610aab565b946020939093013593505050565b600060208284031215610b0357600080fd5b610b0c82610aab565b9392505050565b600080600060608486031215610b2857600080fd5b610b3184610aab565b9250610b3f60208501610aab565b9150604084013590509250925092565b600060208284031215610b6157600080fd5b5035919050565b60008083601f840112610b7a57600080fd5b50813567ffffffffffffffff811115610b9257600080fd5b6020830191508360208260051b8501011115610bad57600080fd5b9250929050565b60008060008060408587031215610bca57600080fd5b843567ffffffffffffffff80821115610be257600080fd5b610bee88838901610b68565b90965094506020870135915080821115610c0757600080fd5b50610c1487828801610b68565b95989497509550505050565b60008060408385031215610c3357600080fd5b610c3c83610aab565b9150610c4a60208401610aab565b90509250929050565b600181811c90821680610c6757607f821691505b602082108103610c8757634e487b7160e01b600052602260045260246000fd5b50919050565b60208082526027908201527f42333366436f696e3a206f6e6c7920626174746c6520636f6e74726163742063604082015266185b881b5a5b9d60ca1b606082015260800190565b60208082526025908201527f42333366436f696e3a2063616e6e6f74206d696e7420746f207a65726f206164604082015264647265737360d81b606082015260800190565b634e487b7160e01b600052603260045260246000fd5b634e487b7160e01b600052601160045260246000fd5b600060018201610d5757610d57610d2f565b5060010190565b8082018082111561036b5761036b610d2f56fea26469706673582212204cdf7b4e60c6176b6e0ae53474b07f48c29210d4005c1566f0bf4954b635a8af64736f6c63430008140033",
  "linkReferences": {},
  "deployedLinkReferences": {}
}