{
  "_format": "hh-sol-artifact-1",
  "contractName": "CloutBattle",
  "sourceName": "contracts/CloutBattle.sol",
  "abi": [
    {
      "inputs": [
        {
          "internalType": "address",
          "name": "_b33fCoin",
          "type": "address"
        },
        {
          "internalType": "address",
          "name": "initialOwner",
          "type": "address"
        }
      ],
      "stateMutability": "nonpayable",
      "type": "constructor"
    },
    {
      "inputs": [
        {
          "internalType": "address",
          "name": "owner",
          "type": "address"
        }
      ],
      "name": "OwnableInvalidOwner",
      "type": "error"
    },
    {
      "inputs": [
        {
          "internalType": "address",
          "name": "account",
          "type": "address"
        }
      ],
      "name": "OwnableUnauthorizedAccount",
      "type": "error"
    },
    {
      "inputs": [],
      "name": "ReentrancyGuardReentrantCall",
      "type": "error"
    },
    {
      "anonymous": false,
      "inputs": [
        {
          "indexed": true,
          "internalType": "uint256",
          "name": "battleId",
          "type": "uint256"
        }
      ],
      "name": "BattleCancelled",
      "type": "event"
    },
    {
      "anonymous": false,
      "inputs": [
        {
          "indexed": true,
          "internalType": "uint256",
          "name": "battleId",
          "type": "uint256"
        },
        {
          "indexed": true,
          "internalType": "address",
          "name": "challenger",
          "type": "address"
        },
        {
          "indexed": true,
          "internalType": "address",
          "name": "opponent",
          "type": "address"
        },
        {
          "indexed": false,
          "internalType": "uint256",
          "name": "timestamp",
          "type": "uint256"
        }
      ],
      "name": "BattleCreated",
      "type": "event"
    },
    {
      "anonymous": false,
      "inputs": [
        {
          "indexed": true,
          "internalType": "uint256",
          "name": "battleId",
          "type": "uint256"
        },
        {
          "indexed": true,
          "internalType": "address",
          "name": "winner",
          "type": "address"
        },
        {
          "indexed": true,
          "internalType": "address",
          "name": "loser",
          "type": "address"
        },
        {
          "indexed": false,
          "internalType": "uint256",
          "name": "rewardAmount",
          "type": "uint256"
        },
        {
          "indexed": false,
          "internalType": "bytes32",
          "name": "daBlobHash",
          "type": "bytes32"
        }
      ],
      "name": "BattleResolved",
      "type": "event"
    },
    {
      "anonymous": false,
      "inputs": [
        {
          "indexed": true,
          "internalType": "address",
          "name": "previousOwner",
          "type": "address"
        },
        {
          "indexed": true,
          "internalType": "address",
          "name": "newOwner",
          "type": "address"
        }
      ],
      "name": "OwnershipTransferred",
      "type": "event"
    },
    {
      "anonymous": false,
      "inputs": [
        {
          "indexed": false,
          "internalType": "uint256",
          "name": "oldAmount",
          "type": "uint256"
        },
        {
          "indexed": false,
          "internalType": "uint256",
          "name": "newAmount",
          "type": "uint256"
        }
      ],
      "name": "RewardAmountUpdated",
      "type": "event"
    },
    {
      "anonymous": false,
      "inputs": [
        {
          "indexed": true,
          "internalType": "address",
          "name": "user",
          "type": "address"
        },
        {
          "indexed": false,
          "internalType": "uint256",
          "name": "newScore",
          "type": "uint256"
        },
        {
          "indexed": false,
          "internalType": "uint256",
          "name": "timestamp",
          "type": "uint256"
        }
      ],
      "name": "SentimentUpdated",
      "type": "event"
    },
    {
      "anonymous": false,
      "inputs": [
        {
          "indexed": true,
          "internalType": "address",
          "name": "user",
          "type": "address"
        },
        {
          "indexed": false,
          "internalType": "string",
          "name": "twitterHandle",
          "type": "string"
        },
        {
          "indexed": false,
          "internalType": "string",
          "name": "redditHandle",
          "type": "string"
        }
      ],
      "name": "UserRegistered",
      "type": "event"
    },
    {
      "inputs": [],
      "name": "b33fCoin",
      "outputs": [
        {
          "internalType": "contract IB33fCoin",
          "name": "",
          "type": "address"
        }
      ],
      "stateMutability": "view",
      "type": "function"
    },
    {
      "inputs": [],
      "name": "battleCounter",
      "outputs": [
        {
          "internalType": "uint256",
          "name": "",
          "type": "uint256"
        }
      ],
      "stateMutability": "view",
      "type": "function"
    },
    {
      "inputs": [
        {
          "internalType": "uint256",
          "name": "",
          "type": "uint256"
        }
      ],
      "name": "battles",
      "outputs": [
        {
          "internalType": "address",
          "name": "challenger",
          "type": "address"
        },
        {
          "internalType": "address",
          "name": "opponent",
          "type": "address"
        },
        {
          "internalType": "uint256",
          "name": "challengerSentiment",
          "type": "uint256"
        },
        {
          "internalType": "uint256",
          "name": "opponentSentiment",
          "type": "uint256"
        },
        {
          "internalType": "address",
          "name": "winner",
          "type": "address"
        },
        {
          "internalType": "enum CloutBattle.BattleStatus",
          "name": "status",
          "type": "uint8"
        },
        {
          "internalType": "uint256",
          "name": "createdAt",
          "type": "uint256"
        },
        {
          "internalType": "uint256",
          "name": "resolvedAt",
          "type": "uint256"
        },
        {
          "internalType": "bytes32",
          "name": "daBlobHash",
          "type": "bytes32"
        },
        {
          "internalType": "uint256",
          "name": "rewardAmount",
          "type": "uint256"
        }
      ],
      "stateMutability": "view",
      "type": "function"
    },
    {
      "inputs": [
        {
          "internalType": "uint256",
          "name": "battleId",
          "type": "uint256"
        }
      ],
      "name": "cancelBattle",
      "outputs": [],
      "stateMutability": "nonpayable",
      "type": "function"
    },
    {
      "inputs": [
        {
          "internalType": "address",
          "name": "opponent",
          "type": "address"
        }
      ],
      "name": "createBattle",
      "outputs": [
        {
          "internalType": "uint256",
          "name": "",
          "type": "uint256"
        }
      ],
      "stateMutability": "nonpayable",
      "type": "function"
    },
    {
      "inputs": [
        {
          "internalType": "uint256",
          "name": "battleId",
          "type": "uint256"
        }
      ],
      "name": "getBattle",
      "outputs": [
        {
          "components": [
            {
              "internalType": "address",
              "name": "challenger",
              "type": "address"
            },
            {
              "internalType": "address",
              "name": "opponent",
              "type": "address"
            },
            {
              "internalType": "uint256",
              "name": "challengerSentiment",
              "type": "uint256"
            },
            {
              "internalType": "uint256",
              "name": "opponentSentiment",
              "type": "uint256"
            },
            {
              "internalType": "address",
              "name": "winner",
              "type": "address"
            },
            {
              "internalType": "enum CloutBattle.BattleStatus",
              "name": "status",
              "type": "uint8"
            },
            {
              "internalType": "uint256",
              "name": "createdAt",
              "type": "uint256"
            },
            {
              "internalType": "uint256",
              "name": "resolvedAt",
              "type": "uint256"
            },
            {
              "internalType": "bytes32",
              "name": "daBlobHash",
              "type": "bytes32"
            },
            {
              "internalType": "uint256",
              "name": "rewardAmount",
              "type": "uint256"
            }
          ],
          "internalType": "struct CloutBattle.Battle",
          "name": "",
          "type": "tuple"
        }
      ],
      "stateMutability": "view",
      "type": "function"
    },
    {
      "inputs": [],
      "name": "getTotalBattles",
      "outputs": [
        {
          "internalType": "uint256",
          "name": "",
          "type": "uint256"
        }
      ],
      "stateMutability": "view",
      "type": "function"
    },
    {
      "inputs": [
        {
          "internalType": "address",
          "name": "user",
          "type": "address"
        }
      ],
      "name": "getUser",
      "outputs": [
        {
          "components": [
            {
              "internalType": "string",
              "name": "twitterHandle",
              "type": "string"
            },
            {
              "internalType": "string",
              "name": "redditHandle",
              "type": "string"
            },
            {
              "internalType": "uint256",
              "name": "sentimentScore",
              "type": "uint256"
            },
            {
              "internalType": "uint256",
              "name": "battlesWon",
              "type": "uint256"
            },
            {
              "internalType": "uint256",
              "name": "battlesLost",
              "type": "uint256"
            },
            {
              "internalType": "bool",
              "name": "registered",
              "type": "bool"
            }
          ],
          "internalType": "struct CloutBattle.User",
          "name": "",
          "type": "tuple"
        }
      ],
      "stateMutability": "view",
      "type": "function"
    },
    {
      "inputs": [
        {
          "internalType": "address",
          "name": "user",
          "type": "address"
        }
      ],
      "name": "getUserBattles",
      "outputs": [
        {
          "internalType": "uint256[]",
          "name": "",
          "type": "uint256[]"
        }
      ],
      "stateMutability": "view",
      "type": "function"
    },
    {
      "inputs": [],
      "name": "owner",
      "outputs": [
        {
          "internalType": "address",
          "name": "",
          "type": "address"
        }
      ],
      "stateMutability": "view",
      "type": "function"
    },
    {
      "inputs": [
        {
          "internalType": "string",
          "name": "twitterHandle",
          "type": "string"
        },
        {
          "internalType": "string",
          "name": "redditHandle",
          "type": "string"
        }
      ],
      "name": "registerUser",
      "outputs": [],
      "stateMutability": "nonpayable",
      "type": "function"
    },
    {
      "inputs": [],
      "name": "renounceOwnership",
      "outputs": [],
      "stateMutability": "nonpayable",
      "type": "function"
    },
    {
      "inputs": [
        {
          "internalType": "uint256",
          "name": "battleId",
          "type": "uint256"
        },
        {
          "internalType": "address",
          "name": "winner",
          "type": "address"
        },
        {
          "internalType": "bytes32",
          "name": "daBlobHash",
          "type": "bytes32"
        }
      ],
      "name": "resolveBattle",
      "outputs": [],
      "stateMutability": "nonpayable",
      "type": "function"
    },
    {
      "inputs": [],
      "name": "rewardPerWin",
      "outputs": [
        {
          "internalType": "uint256",
          "name": "",
          "type": "uint256"
        }
      ],
      "stateMutability": "view",
      "type": "function"
    },
    {
      "inputs": [
        {
          "internalType": "uint256",
          "name": "newReward",
          "type": "uint256"
        }
      ],
      "name": "setRewardPerWin",
      "outputs": [],
      "stateMutability": "nonpayable",
      "type": "function"
    },
    {
      "inputs": [
        {
          "internalType": "address",
          "name": "newOwner",
          "type": "address"
        }
      ],
      "name": "transferOwnership",
      "outputs": [],
      "stateMutability": "nonpayable",
      "type": "function"
    },
    {
      "inputs": [
        {
          "internalType": "address",
          "name": "user",
          "type": "address"
        },
        {
          "internalType": "uint256",
          "name": "newScore",
          "type": "uint256"
        }
      ],
      "name": "updateSentimentScore",
      "outputs": [],
      "stateMutability": "nonpayable",
      "type": "function"
    },
    {
      "inputs": [
        {
          "internalType": "string",
          "name": "twitterHandle",
          "type": "string"
        },
        {
          "internalType": "string",
          "name": "redditHandle",
          "type": "string"
        }
      ],
      "name": "updateUserHandles",
      "outputs": [],
      "stateMutability": "nonpayable",
      "type": "function"
    },
    {
      "inputs": [
        {
          "internalType": "address",
          "name": "",
          "type": "address"
        },
        {
          "internalType": "uint256",
          "name": "",
          "type": "uint256"
        }
      ],
      "name": "userBattles",
      "outputs": [
        {
          "internalType": "uint256",
          "name": "",
          "type": "uint256"
        }
      ],
      "stateMutability": "view",
      "type": "function"
    },
    {
      "inputs": [
        {
          "internalType": "address",
          "name": "",
          "type": "address"
        }
      ],
      "name": "users",
      "outputs": [
        {
          "internalType": "string",
          "name": "twitterHandle",
          "type": "string"
        },
        {
          "internalType": "string",
          "name": "redditHandle",
          "type": "string"
        },
        {
          "internalType": "uint256",
          "name": "sentimentScore",
          "type": "uint256"
        },
        {
          "internalType": "uint256",
          "name": "battlesWon",
          "type": "uint256"
        },
        {
          "internalType": "uint256",
          "name": "battlesLost",
          "type": "uint256"
        },
        {
          "internalType": "bool",
          "name": "registered",
          "type": "bool"
        }
      ],
      "stateMutability": "view",
      "type": "function"
    }
  ],
  "bytecode": "0x608060405268056bc75e2d631000006007553480156200001e57600080fd5b5060405162001d5f38038062001d5f833981016040819052620000419162000183565b806001600160a01b0381166200007257604051631e4fbdf760e01b8152600060048201526024015b60405180910390fd5b6200007d8162000116565b50600180556001600160a01b038216620000ef5760405162461bcd60e51b815260206004820152602c60248201527f436c6f7574426174746c653a2042333366436f696e206164647265737320636160448201526b6e6e6f74206265207a65726f60a01b606482015260840162000069565b50600280546001600160a01b0319166001600160a01b0392909216919091179055620001bb565b600080546001600160a01b038381166001600160a01b0319831681178455604051919092169283917f8be0079c531659141344cd1fd0a4f28419497f9722a3daafe3b4186f6b6457e09190a35050565b80516001600160a01b03811681146200017e57600080fd5b919050565b600080604083850312156200019757600080fd5b620001a28362000166565b9150620001b26020840162000166565b90509250929050565b611b9480620001cb6000396000f3fe608060405234801561001057600080fd5b506004361061012c5760003560e01c80639082d281116100ad578063de34c87111610071578063de34c871146102f2578063dfbef0c9146102fb578063e75eb0421461030e578063f2fde38b14610321578063f5dbbaed1461033457600080fd5b80639082d2811461029657806395c0d525146102a9578063a87430ba146102b1578063a9b9be3f146102d6578063d0155a78146102df57600080fd5b8063606d2e96116100f4578063606d2e96146101a55780636dd0ce7a146102295780636f77926b14610249578063715018a6146102695780638da5cb5b1461027157600080fd5b806305760181146101315780631d2e4afd146101575780633faa01bb1461016c5780634c4c447e1461017f57806357a171c814610192575b600080fd5b61014461013f366004611455565b610354565b6040519081526020015b60405180910390f35b61016a6101653660046114c8565b610385565b005b61016a61017a3660046114c8565b61057c565b61016a61018d366004611534565b610657565b6101446101a036600461154d565b610794565b6102136101b3366004611534565b60046020819052600091825260409091208054600182015460028301546003840154948401546005850154600686015460078701546008909701546001600160a01b0396871698958716979496841694600160a01b90940460ff1693908a565b60405161014e9a999897969594939291906115a7565b61023c610237366004611534565b610aaa565b60405161014e919061160c565b61025c61025736600461154d565b610bba565b60405161014e91906116f3565b61016a610d6f565b6000546001600160a01b03165b6040516001600160a01b03909116815260200161014e565b61016a6102a4366004611763565b610d83565b600654610144565b6102c46102bf36600461154d565b611016565b60405161014e96959493929190611798565b61014460065481565b60025461027e906001600160a01b031681565b61014460075481565b61016a610309366004611455565b61115e565b61016a61031c366004611534565b61129b565b61016a61032f36600461154d565b6112e8565b61034761034236600461154d565b611326565b60405161014e91906117e5565b6005602052816000526040600020818154811061037057600080fd5b90600052602060002001600091509150505481565b3360009081526003602052604090206005015460ff16156103f95760405162461bcd60e51b8152602060048201526024808201527f436c6f7574426174746c653a207573657220616c726561647920726567697374604482015263195c995960e21b60648201526084015b60405180910390fd5b826104165760405162461bcd60e51b81526004016103f090611829565b806104335760405162461bcd60e51b81526004016103f090611874565b6040518060c0016040528085858080601f016020809104026020016040519081016040528093929190818152602001838380828437600092019190915250505090825250604080516020601f8601819004810282018101909252848152918101919085908590819084018382808284376000920182905250938552505050602080830182905260408084018390526060840183905260016080909401939093523382526003905220815181906104e9908261195c565b50602082015160018201906104fe908261195c565b506040828101516002830155606083015160038301556080830151600483015560a0909201516005909101805460ff19169115159190911790555133907f92822564bab8864c3a47b34e8d23fbce5c46234eb5da261f94087b995ac0f33b9061056e908790879087908790611a45565b60405180910390a250505050565b3360009081526003602052604090206005015460ff166105de5760405162461bcd60e51b815260206004820181905260248201527f436c6f7574426174746c653a2075736572206e6f74207265676973746572656460448201526064016103f0565b826105fb5760405162461bcd60e51b81526004016103f090611829565b806106185760405162461bcd60e51b81526004016103f090611874565b336000908152600360205260409020610632848683611a77565b50336000908152600360205260409020600101610650828483611a77565b5050505050565b600081815260046020526040902080546001600160a01b031633148061068757506000546001600160a01b031633145b6106e15760405162461bcd60e51b815260206004820152602560248201527f436c6f7574426174746c653a206e6f7420617574686f72697a656420746f2063604482015264185b98d95b60da1b60648201526084016103f0565b60006004820154600160a01b900460ff1660028111156107035761070361156f565b146107505760405162461bcd60e51b815260206004820152601f60248201527f436c6f7574426174746c653a20626174746c65206e6f742070656e64696e670060448201526064016103f0565b60048101805460ff60a01b1916600160a11b17905560405182907fe10fd8c156678d18df7daf6dd3e15b95c6d350ee99272630fcad6dde9bef0d0c90600090a25050565b3360009081526003602052604081206005015460ff166108055760405162461bcd60e51b815260206004820152602660248201527f436c6f7574426174746c653a206368616c6c656e676572206e6f7420726567696044820152651cdd195c995960d21b60648201526084016103f0565b6001600160a01b03821660009081526003602052604090206005015460ff1661087c5760405162461bcd60e51b8152602060048201526024808201527f436c6f7574426174746c653a206f70706f6e656e74206e6f7420726567697374604482015263195c995960e21b60648201526084016103f0565b6001600160a01b03821633036108e05760405162461bcd60e51b815260206004820152602360248201527f436c6f7574426174746c653a2063616e6e6f7420626174746c6520796f75727360448201526232b63360e91b60648201526084016103f0565b60068054600091826108f183611b37565b909155506040805161014081018252338082526001600160a01b03878116602080850182815260009485526003808352878620600290810154888a01908152948752818452888720810154606089019081526080890188815260a08a018981524260c08c015260e08b018a90526101008b018a90526007546101208c01528c8a526004968790529a909820895181549089166001600160a01b03199182161782559451600182018054918a169187169190911790559551868301555191850191909155945191830180549290941690821681178455955196975093959094909391926001600160a81b03199092161790600160a01b9084908111156109f8576109f861156f565b021790555060c082015160058281019190915560e0830151600683015561010083015160078301556101209092015160089091015533600081815260209283526040808220805460018082018355918452858420018690556001600160a01b038816808452828420805492830181558452928590200185905551428152909284917f1bbb712452e9b3bb870855ab756e8775b4a6c1911c57bce8f41e8b969e8218df910160405180910390a492915050565b6040805161014081018252600080825260208201819052918101829052606081018290526080810182905260a0810182905260c0810182905260e08101829052610100810182905261012081019190915260008281526004602081815260409283902083516101408101855281546001600160a01b03908116825260018301548116938201939093526002808301549582019590955260038201546060820152928101549182166080840152919260a0840191600160a01b900460ff1690811115610b7757610b7761156f565b6002811115610b8857610b8861156f565b815260058201546020820152600682015460408201526007820154606082015260089091015460809091015292915050565b610bf56040518060c0016040528060608152602001606081526020016000815260200160008152602001600081526020016000151581525090565b6001600160a01b03821660009081526003602052604090819020815160c08101909252805482908290610c27906118d4565b80601f0160208091040260200160405190810160405280929190818152602001828054610c53906118d4565b8015610ca05780601f10610c7557610100808354040283529160200191610ca0565b820191906000526020600020905b815481529060010190602001808311610c8357829003601f168201915b50505050508152602001600182018054610cb9906118d4565b80601f0160208091040260200160405190810160405280929190818152602001828054610ce5906118d4565b8015610d325780601f10610d0757610100808354040283529160200191610d32565b820191906000526020600020905b815481529060010190602001808311610d1557829003601f168201915b505050918352505060028201546020820152600382015460408201526004820154606082015260059091015460ff16151560809091015292915050565b610d77611392565b610d8160006113bf565b565b610d8b611392565b610d9361140f565b6000838152600460205260408120906004820154600160a01b900460ff166002811115610dc257610dc261156f565b14610e0f5760405162461bcd60e51b815260206004820152601f60248201527f436c6f7574426174746c653a20626174746c65206e6f742070656e64696e670060448201526064016103f0565b80546001600160a01b0384811691161480610e39575060018101546001600160a01b038481169116145b610e855760405162461bcd60e51b815260206004820152601b60248201527f436c6f7574426174746c653a20696e76616c69642077696e6e6572000000000060448201526064016103f0565b80546000906001600160a01b03858116911614610eac5781546001600160a01b0316610ebb565b60018201546001600160a01b03165b6004830180546001600160a01b0387166001600160a81b03199091168117600160a01b17909155426006850155600784018590556000908152600360208190526040822001805492935090610f0f83611b37565b90915550506001600160a01b0381166000908152600360205260408120600401805491610f3b83611b37565b909155505060025460088301546040516340c10f1960e01b81526001600160a01b03878116600483015260248201929092529116906340c10f1990604401600060405180830381600087803b158015610f9357600080fd5b505af1158015610fa7573d6000803e3d6000fd5b50505050806001600160a01b0316846001600160a01b0316867fa57affaa39a79b4869908ccf2cb499dac1eee8aacccd196a08ee68fd3ddf4be2856008015487604051610ffe929190918252602082015260400190565b60405180910390a4505061101160018055565b505050565b600360205260009081526040902080548190611031906118d4565b80601f016020809104026020016040519081016040528092919081815260200182805461105d906118d4565b80156110aa5780601f1061107f576101008083540402835291602001916110aa565b820191906000526020600020905b81548152906001019060200180831161108d57829003601f168201915b5050505050908060010180546110bf906118d4565b80601f01602080910402602001604051908101604052809291908181526020018280546110eb906118d4565b80156111385780601f1061110d57610100808354040283529160200191611138565b820191906000526020600020905b81548152906001019060200180831161111b57829003601f168201915b505050506002830154600384015460048501546005909501549394919390925060ff1686565b611166611392565b6001600160a01b03821660009081526003602052604090206005015460ff166111d15760405162461bcd60e51b815260206004820181905260248201527f436c6f7574426174746c653a2075736572206e6f74207265676973746572656460448201526064016103f0565b60648111156112365760405162461bcd60e51b815260206004820152602b60248201527f436c6f7574426174746c653a2073656e74696d656e742073636f7265206d757360448201526a074206265203c3d203130360ac1b60648201526084016103f0565b6001600160a01b03821660008181526003602052604090819020600201839055517f7a3c8f2c463e5ff64d45c586204f4924778d997a3d1efd312e12421ef30b0da09061128f9084904290918252602082015260400190565b60405180910390a25050565b6112a3611392565b600780549082905560408051828152602081018490527ff0d37c3ae852021ac329281f604b658691cbfa6b9e9c22909f06b64a8ce87c94910160405180910390a15050565b6112f0611392565b6001600160a01b03811661131a57604051631e4fbdf760e01b8152600060048201526024016103f0565b611323816113bf565b50565b6001600160a01b03811660009081526005602090815260409182902080548351818402810184019094528084526060939283018282801561138657602002820191906000526020600020905b815481526020019060010190808311611372575b50505050509050919050565b6000546001600160a01b03163314610d815760405163118cdaa760e01b81523360048201526024016103f0565b600080546001600160a01b038381166001600160a01b0319831681178455604051919092169283917f8be0079c531659141344cd1fd0a4f28419497f9722a3daafe3b4186f6b6457e09190a35050565b60026001540361143257604051633ee5aeb560e01b815260040160405180910390fd5b6002600155565b80356001600160a01b038116811461145057600080fd5b919050565b6000806040838503121561146857600080fd5b61147183611439565b946020939093013593505050565b60008083601f84011261149157600080fd5b50813567ffffffffffffffff8111156114a957600080fd5b6020830191508360208285010111156114c157600080fd5b9250929050565b600080600080604085870312156114de57600080fd5b843567ffffffffffffffff808211156114f657600080fd5b6115028883890161147f565b9096509450602087013591508082111561151b57600080fd5b506115288782880161147f565b95989497509550505050565b60006020828403121561154657600080fd5b5035919050565b60006020828403121561155f57600080fd5b61156882611439565b9392505050565b634e487b7160e01b600052602160045260246000fd5b600381106115a357634e487b7160e01b600052602160045260246000fd5b9052565b6001600160a01b038b811682528a81166020830152604082018a9052606082018990528716608082015261014081016115e360a0830188611585565b8560c08301528460e083015283610100830152826101208301529b9a5050505050505050505050565b81516001600160a01b031681526101408101602083015161163860208401826001600160a01b03169052565b506040830151604083015260608301516060830152608083015161166760808401826001600160a01b03169052565b5060a083015161167a60a0840182611585565b5060c083015160c083015260e083015160e083015261010080840151818401525061012080840151818401525092915050565b6000815180845260005b818110156116d3576020818501810151868301820152016116b7565b506000602082860101526020601f19601f83011685010191505092915050565b602081526000825160c0602084015261170f60e08401826116ad565b90506020840151601f1984830301604085015261172c82826116ad565b9150506040840151606084015260608401516080840152608084015160a084015260a0840151151560c08401528091505092915050565b60008060006060848603121561177857600080fd5b8335925061178860208501611439565b9150604084013590509250925092565b60c0815260006117ab60c08301896116ad565b82810360208401526117bd81896116ad565b91505085604083015284606083015283608083015282151560a0830152979650505050505050565b6020808252825182820181905260009190848201906040850190845b8181101561181d57835183529284019291840191600101611801565b50909695505050505050565b6020808252602b908201527f436c6f7574426174746c653a20747769747465722068616e646c652063616e6e60408201526a6f7420626520656d70747960a81b606082015260800190565b6020808252602a908201527f436c6f7574426174746c653a207265646469742068616e646c652063616e6e6f6040820152697420626520656d70747960b01b606082015260800190565b634e487b7160e01b600052604160045260246000fd5b600181811c908216806118e857607f821691505b60208210810361190857634e487b7160e01b600052602260045260246000fd5b50919050565b601f82111561101157600081815260208120601f850160051c810160208610156119355750805b601f850160051c820191505b8181101561195457828155600101611941565b505050505050565b815167ffffffffffffffff811115611976576119766118be565b61198a8161198484546118d4565b8461190e565b602080601f8311600181146119bf57600084156119a75750858301515b600019600386901b1c1916600185901b178555611954565b600085815260208120601f198616915b828110156119ee578886015182559484019460019091019084016119cf565b5085821015611a0c5787850151600019600388901b60f8161c191681555b5050505050600190811b01905550565b81835281816020850137506000828201602090810191909152601f909101601f19169091010190565b604081526000611a59604083018688611a1c565b8281036020840152611a6c818587611a1c565b979650505050505050565b67ffffffffffffffff831115611a8f57611a8f6118be565b611aa383611a9d83546118d4565b8361190e565b6000601f841160018114611ad75760008515611abf5750838201355b600019600387901b1c1916600186901b178355610650565b600083815260209020601f19861690835b82811015611b085786850135825560209485019460019092019101611ae8565b5086821015611b255760001960f88860031b161c19848701351681555b505060018560011b0183555050505050565b600060018201611b5757634e487b7160e01b600052601160045260246000fd5b506001019056fea2646970667358221220fe5d115f9a3a8181e8fe97d65a519ca440723220f4270e7978dfc32b3ab3f26b64736f6c63430008140033",
  "linkReferences": {},
  "deployedLinkReferences": {}
}